{
  "_format": "hh-sol-artifact-1",
  "contractName": "FlashLoan",
  "sourceName": "contracts/FlashLoan.sol",
  "abi": [
    {
      "inputs": [
        {
          "internalType": "address",
          "name": "_addressProvider",
          "type": "address"
        }
      ],
      "stateMutability": "nonpayable",
      "type": "constructor"
    },
    {
      "inputs": [],
      "name": "ADDRESSES_PROVIDER",
      "outputs": [
        {
          "internalType": "contract IPoolAddressesProvider",
          "name": "",
          "type": "address"
        }
      ],
      "stateMutability": "view",
      "type": "function"
    },
    {
      "inputs": [],
      "name": "POOL",
      "outputs": [
        {
          "internalType": "contract IPool",
          "name": "",
          "type": "address"
        }
      ],
      "stateMutability": "view",
      "type": "function"
    },
    {
      "inputs": [
        {
          "internalType": "address",
          "name": "asset",
          "type": "address"
        },
        {
          "internalType": "uint256",
          "name": "amount",
          "type": "uint256"
        },
        {
          "internalType": "uint256",
          "name": "premium",
          "type": "uint256"
        },
        {
          "internalType": "address",
          "name": "initiator",
          "type": "address"
        },
        {
          "internalType": "bytes",
          "name": "params",
          "type": "bytes"
        }
      ],
      "name": "executeOperation",
      "outputs": [
        {
          "internalType": "bool",
          "name": "",
          "type": "bool"
        }
      ],
      "stateMutability": "nonpayable",
      "type": "function"
    },
    {
      "inputs": [
        {
          "internalType": "address",
          "name": "_tokenAddress",
          "type": "address"
        }
      ],
      "name": "getBalance",
      "outputs": [
        {
          "internalType": "uint256",
          "name": "",
          "type": "uint256"
        }
      ],
      "stateMutability": "view",
      "type": "function"
    },
    {
      "inputs": [
        {
          "internalType": "address",
          "name": "_token",
          "type": "address"
        },
        {
          "internalType": "uint256",
          "name": "_amount",
          "type": "uint256"
        }
      ],
      "name": "requestFlashLoan",
      "outputs": [],
      "stateMutability": "nonpayable",
      "type": "function"
    },
    {
      "inputs": [
        {
          "internalType": "address",
          "name": "_tokenAddress",
          "type": "address"
        }
      ],
      "name": "withdraw",
      "outputs": [],
      "stateMutability": "nonpayable",
      "type": "function"
    },
    {
      "stateMutability": "payable",
      "type": "receive"
    }
  ],
  "bytecode": "0x60c060405234801561001057600080fd5b50604051610cbf380380610cbf833981810160405281019061003291906101b3565b808073ffffffffffffffffffffffffffffffffffffffff1660808173ffffffffffffffffffffffffffffffffffffffff16815250508073ffffffffffffffffffffffffffffffffffffffff1663026b1d5f6040518163ffffffff1660e01b8152600401602060405180830381865afa1580156100b2573d6000803e3d6000fd5b505050506040513d601f19601f820116820180604052508101906100d691906101b3565b73ffffffffffffffffffffffffffffffffffffffff1660a08173ffffffffffffffffffffffffffffffffffffffff168152505050336000806101000a81548173ffffffffffffffffffffffffffffffffffffffff021916908373ffffffffffffffffffffffffffffffffffffffff160217905550506101e0565b600080fd5b600073ffffffffffffffffffffffffffffffffffffffff82169050919050565b600061018082610155565b9050919050565b61019081610175565b811461019b57600080fd5b50565b6000815190506101ad81610187565b92915050565b6000602082840312156101c9576101c8610150565b5b60006101d78482850161019e565b91505092915050565b60805160a051610aac610213600039600081816101da0152818161036d01526103b6015260006101890152610aac6000f3fe6080604052600436106100595760003560e01c80630542975c146100655780631b11d0ff1461009057806351cff8d9146100cd5780637535d246146100f6578063d54ba95414610121578063f8b2cb4f1461014a57610060565b3661006057005b600080fd5b34801561007157600080fd5b5061007a610187565b6040516100879190610552565b60405180910390f35b34801561009c57600080fd5b506100b760048036038101906100b29190610650565b6101ab565b6040516100c49190610705565b60405180910390f35b3480156100d957600080fd5b506100f460048036038101906100ef9190610720565b61026a565b005b34801561010257600080fd5b5061010b61036b565b604051610118919061076e565b60405180910390f35b34801561012d57600080fd5b5061014860048036038101906101439190610789565b61038f565b005b34801561015657600080fd5b50610171600480360381019061016c9190610720565b610450565b60405161017e91906107d8565b60405180910390f35b7f000000000000000000000000000000000000000000000000000000000000000081565b60008085876101ba9190610822565b90508773ffffffffffffffffffffffffffffffffffffffff1663095ea7b37f0000000000000000000000000000000000000000000000000000000000000000836040518363ffffffff1660e01b8152600401610217929190610887565b6020604051808303816000875af1158015610236573d6000803e3d6000fd5b505050506040513d601f19601f8201168201806040525081019061025a91906108dc565b5060019150509695505050505050565b60008190508073ffffffffffffffffffffffffffffffffffffffff1663a9059cbb338373ffffffffffffffffffffffffffffffffffffffff166370a08231306040518263ffffffff1660e01b81526004016102c59190610909565b602060405180830381865afa1580156102e2573d6000803e3d6000fd5b505050506040513d601f19601f820116820180604052508101906103069190610939565b6040518363ffffffff1660e01b8152600401610323929190610887565b6020604051808303816000875af1158015610342573d6000803e3d6000fd5b505050506040513d601f19601f8201168201806040525081019061036691906108dc565b505050565b7f000000000000000000000000000000000000000000000000000000000000000081565b600030905060008390506000839050600060405180602001604052806000815250905060007f000000000000000000000000000000000000000000000000000000000000000073ffffffffffffffffffffffffffffffffffffffff166342b0b77c86868686866040518663ffffffff1660e01b8152600401610415959493929190610a1c565b600060405180830381600087803b15801561042f57600080fd5b505af1158015610443573d6000803e3d6000fd5b5050505050505050505050565b60008173ffffffffffffffffffffffffffffffffffffffff166370a08231306040518263ffffffff1660e01b815260040161048b9190610909565b602060405180830381865afa1580156104a8573d6000803e3d6000fd5b505050506040513d601f19601f820116820180604052508101906104cc9190610939565b9050919050565b600073ffffffffffffffffffffffffffffffffffffffff82169050919050565b6000819050919050565b600061051861051361050e846104d3565b6104f3565b6104d3565b9050919050565b600061052a826104fd565b9050919050565b600061053c8261051f565b9050919050565b61054c81610531565b82525050565b60006020820190506105676000830184610543565b92915050565b600080fd5b600080fd5b6000610582826104d3565b9050919050565b61059281610577565b811461059d57600080fd5b50565b6000813590506105af81610589565b92915050565b6000819050919050565b6105c8816105b5565b81146105d357600080fd5b50565b6000813590506105e5816105bf565b92915050565b600080fd5b600080fd5b600080fd5b60008083601f8401126106105761060f6105eb565b5b8235905067ffffffffffffffff81111561062d5761062c6105f0565b5b602083019150836001820283011115610649576106486105f5565b5b9250929050565b60008060008060008060a0878903121561066d5761066c61056d565b5b600061067b89828a016105a0565b965050602061068c89828a016105d6565b955050604061069d89828a016105d6565b94505060606106ae89828a016105a0565b935050608087013567ffffffffffffffff8111156106cf576106ce610572565b5b6106db89828a016105fa565b92509250509295509295509295565b60008115159050919050565b6106ff816106ea565b82525050565b600060208201905061071a60008301846106f6565b92915050565b6000602082840312156107365761073561056d565b5b6000610744848285016105a0565b91505092915050565b60006107588261051f565b9050919050565b6107688161074d565b82525050565b6000602082019050610783600083018461075f565b92915050565b600080604083850312156107a05761079f61056d565b5b60006107ae858286016105a0565b92505060206107bf858286016105d6565b9150509250929050565b6107d2816105b5565b82525050565b60006020820190506107ed60008301846107c9565b92915050565b7f4e487b7100000000000000000000000000000000000000000000000000000000600052601160045260246000fd5b600061082d826105b5565b9150610838836105b5565b9250827fffffffffffffffffffffffffffffffffffffffffffffffffffffffffffffffff0382111561086d5761086c6107f3565b5b828201905092915050565b61088181610577565b82525050565b600060408201905061089c6000830185610878565b6108a960208301846107c9565b9392505050565b6108b9816106ea565b81146108c457600080fd5b50565b6000815190506108d6816108b0565b92915050565b6000602082840312156108f2576108f161056d565b5b6000610900848285016108c7565b91505092915050565b600060208201905061091e6000830184610878565b92915050565b600081519050610933816105bf565b92915050565b60006020828403121561094f5761094e61056d565b5b600061095d84828501610924565b91505092915050565b600081519050919050565b600082825260208201905092915050565b60005b838110156109a0578082015181840152602081019050610985565b838111156109af576000848401525b50505050565b6000601f19601f8301169050919050565b60006109d182610966565b6109db8185610971565b93506109eb818560208601610982565b6109f4816109b5565b840191505092915050565b600061ffff82169050919050565b610a16816109ff565b82525050565b600060a082019050610a316000830188610878565b610a3e6020830187610878565b610a4b60408301866107c9565b8181036060830152610a5d81856109c6565b9050610a6c6080830184610a0d565b969550505050505056fea2646970667358221220cfa4b7852f37feb13976711263d7d6e373323f6fb8fc242eb64d9135e85b385964736f6c634300080a0033",
  "linkReferences": {},
  "deployedLinkReferences": {}
}